{
  "_format": "hh-sol-artifact-1",
  "contractName": "UserManager",
  "sourceName": "contracts/UserRegistry.sol",
  "abi": [
    {
      "inputs": [
        {
          "internalType": "address",
          "name": "_landRegistry",
          "type": "address"
        }
      ],
      "stateMutability": "nonpayable",
      "type": "constructor"
    },
    {
      "anonymous": false,
      "inputs": [
        {
          "indexed": true,
          "internalType": "address",
          "name": "user",
          "type": "address"
        }
      ],
      "name": "UserDeleted",
      "type": "event"
    },
    {
      "anonymous": false,
      "inputs": [
        {
          "indexed": true,
          "internalType": "address",
          "name": "user",
          "type": "address"
        }
      ],
      "name": "UserRegistered",
      "type": "event"
    },
    {
      "inputs": [],
      "name": "amIRegistered",
      "outputs": [
        {
          "internalType": "bool",
          "name": "",
          "type": "bool"
        }
      ],
      "stateMutability": "view",
      "type": "function"
    },
    {
      "inputs": [
        {
          "internalType": "address",
          "name": "_user",
          "type": "address"
        }
      ],
      "name": "deleteUser",
      "outputs": [],
      "stateMutability": "nonpayable",
      "type": "function"
    },
    {
      "inputs": [
        {
          "internalType": "address",
          "name": "_user",
          "type": "address"
        }
      ],
      "name": "isRegistered",
      "outputs": [
        {
          "internalType": "bool",
          "name": "",
          "type": "bool"
        }
      ],
      "stateMutability": "view",
      "type": "function"
    },
    {
      "inputs": [],
      "name": "landRegistry",
      "outputs": [
        {
          "internalType": "contract LandRegistry",
          "name": "",
          "type": "address"
        }
      ],
      "stateMutability": "view",
      "type": "function"
    },
    {
      "inputs": [],
      "name": "registerUser",
      "outputs": [],
      "stateMutability": "nonpayable",
      "type": "function"
    },
    {
      "inputs": [
        {
          "internalType": "address",
          "name": "_user",
          "type": "address"
        }
      ],
      "name": "viewUserLands",
      "outputs": [
        {
          "internalType": "string[]",
          "name": "",
          "type": "string[]"
        }
      ],
      "stateMutability": "view",
      "type": "function"
    }
  ],
  "bytecode": "0x60a06040523480156200001157600080fd5b5060405162000e9138038062000e9183398181016040528101906200003791906200014e565b600073ffffffffffffffffffffffffffffffffffffffff168173ffffffffffffffffffffffffffffffffffffffff1603620000a9576040517f08c379a0000000000000000000000000000000000000000000000000000000008152600401620000a090620001e1565b60405180910390fd5b8073ffffffffffffffffffffffffffffffffffffffff1660808173ffffffffffffffffffffffffffffffffffffffff16815250505062000203565b600080fd5b600073ffffffffffffffffffffffffffffffffffffffff82169050919050565b60006200011682620000e9565b9050919050565b620001288162000109565b81146200013457600080fd5b50565b60008151905062000148816200011d565b92915050565b600060208284031215620001675762000166620000e4565b5b6000620001778482850162000137565b91505092915050565b600082825260208201905092915050565b7f496e76616c6964204c616e645265676973747279206164647265737300000000600082015250565b6000620001c9601c8362000180565b9150620001d68262000191565b602082019050919050565b60006020820190508181036000830152620001fc81620001ba565b9050919050565b608051610c646200022d600039600081816103c0015281816104e6015261058c0152610c646000f3fe608060405234801561001057600080fd5b50600436106100625760003560e01c80634d3820eb146100675780635c60f22614610071578063654bcf7f1461008d5780637004fc1b146100ab578063bd4dc024146100db578063c3c5a547146100f9575b600080fd5b61006f610129565b005b61008b60048036038101906100869190610675565b610251565b005b61009561048f565b6040516100a291906106bd565b60405180910390f35b6100c560048036038101906100c09190610675565b6104e2565b6040516100d2919061082a565b60405180910390f35b6100e361058a565b6040516100f091906108ab565b60405180910390f35b610113600480360381019061010e9190610675565b6105ae565b60405161012091906106bd565b60405180910390f35b6000803373ffffffffffffffffffffffffffffffffffffffff1673ffffffffffffffffffffffffffffffffffffffff16815260200190815260200160002060009054906101000a900460ff16156101b5576040517f08c379a00000000000000000000000000000000000000000000000000000000081526004016101ac90610923565b60405180910390fd5b60016000803373ffffffffffffffffffffffffffffffffffffffff1673ffffffffffffffffffffffffffffffffffffffff16815260200190815260200160002060006101000a81548160ff0219169083151502179055503373ffffffffffffffffffffffffffffffffffffffff167f54db7a5cb4735e1aac1f53db512d3390390bb6637bd30ad4bf9fc98667d9b9b960405160405180910390a2565b6000803373ffffffffffffffffffffffffffffffffffffffff1673ffffffffffffffffffffffffffffffffffffffff16815260200190815260200160002060009054906101000a900460ff166102dc576040517f08c379a00000000000000000000000000000000000000000000000000000000081526004016102d39061098f565b60405180910390fd5b6000808273ffffffffffffffffffffffffffffffffffffffff1673ffffffffffffffffffffffffffffffffffffffff16815260200190815260200160002060009054906101000a900460ff16610367576040517f08c379a000000000000000000000000000000000000000000000000000000000815260040161035e9061098f565b60405180910390fd5b60008060008373ffffffffffffffffffffffffffffffffffffffff1673ffffffffffffffffffffffffffffffffffffffff16815260200190815260200160002060006101000a81548160ff0219169083151502179055507f000000000000000000000000000000000000000000000000000000000000000073ffffffffffffffffffffffffffffffffffffffff16635c60f226826040518263ffffffff1660e01b815260040161041791906109be565b600060405180830381600087803b15801561043157600080fd5b505af1158015610445573d6000803e3d6000fd5b505050503373ffffffffffffffffffffffffffffffffffffffff167f4bc56f1321288dfb5b416cb3a7fd188723979f9e866c91d88eccf7fca039d03960405160405180910390a250565b60008060003373ffffffffffffffffffffffffffffffffffffffff1673ffffffffffffffffffffffffffffffffffffffff16815260200190815260200160002060009054906101000a900460ff16905090565b60607f000000000000000000000000000000000000000000000000000000000000000073ffffffffffffffffffffffffffffffffffffffff166328bf5ef5836040518263ffffffff1660e01b815260040161053d91906109be565b600060405180830381865afa15801561055a573d6000803e3d6000fd5b505050506040513d6000823e3d601f19601f820116820180604052508101906105839190610be5565b9050919050565b7f000000000000000000000000000000000000000000000000000000000000000081565b60008060008373ffffffffffffffffffffffffffffffffffffffff1673ffffffffffffffffffffffffffffffffffffffff16815260200190815260200160002060009054906101000a900460ff169050919050565b6000604051905090565b600080fd5b600080fd5b600073ffffffffffffffffffffffffffffffffffffffff82169050919050565b600061064282610617565b9050919050565b61065281610637565b811461065d57600080fd5b50565b60008135905061066f81610649565b92915050565b60006020828403121561068b5761068a61060d565b5b600061069984828501610660565b91505092915050565b60008115159050919050565b6106b7816106a2565b82525050565b60006020820190506106d260008301846106ae565b92915050565b600081519050919050565b600082825260208201905092915050565b6000819050602082019050919050565b600081519050919050565b600082825260208201905092915050565b60005b8381101561073e578082015181840152602081019050610723565b60008484015250505050565b6000601f19601f8301169050919050565b600061076682610704565b610770818561070f565b9350610780818560208601610720565b6107898161074a565b840191505092915050565b60006107a0838361075b565b905092915050565b6000602082019050919050565b60006107c0826106d8565b6107ca81856106e3565b9350836020820285016107dc856106f4565b8060005b8581101561081857848403895281516107f98582610794565b9450610804836107a8565b925060208a019950506001810190506107e0565b50829750879550505050505092915050565b6000602082019050818103600083015261084481846107b5565b905092915050565b6000819050919050565b600061087161086c61086784610617565b61084c565b610617565b9050919050565b600061088382610856565b9050919050565b600061089582610878565b9050919050565b6108a58161088a565b82525050565b60006020820190506108c0600083018461089c565b92915050565b600082825260208201905092915050565b7f416c726561647920726567697374657265640000000000000000000000000000600082015250565b600061090d6012836108c6565b9150610918826108d7565b602082019050919050565b6000602082019050818103600083015261093c81610900565b9050919050565b7f55736572206e6f74207265676973746572656400000000000000000000000000600082015250565b60006109796013836108c6565b915061098482610943565b602082019050919050565b600060208201905081810360008301526109a88161096c565b9050919050565b6109b881610637565b82525050565b60006020820190506109d360008301846109af565b92915050565b600080fd5b7f4e487b7100000000000000000000000000000000000000000000000000000000600052604160045260246000fd5b610a168261074a565b810181811067ffffffffffffffff82111715610a3557610a346109de565b5b80604052505050565b6000610a48610603565b9050610a548282610a0d565b919050565b600067ffffffffffffffff821115610a7457610a736109de565b5b602082029050602081019050919050565b600080fd5b600080fd5b600067ffffffffffffffff821115610aaa57610aa96109de565b5b610ab38261074a565b9050602081019050919050565b6000610ad3610ace84610a8f565b610a3e565b905082815260208101848484011115610aef57610aee610a8a565b5b610afa848285610720565b509392505050565b600082601f830112610b1757610b166109d9565b5b8151610b27848260208601610ac0565b91505092915050565b6000610b43610b3e84610a59565b610a3e565b90508083825260208201905060208402830185811115610b6657610b65610a85565b5b835b81811015610bad57805167ffffffffffffffff811115610b8b57610b8a6109d9565b5b808601610b988982610b02565b85526020850194505050602081019050610b68565b5050509392505050565b600082601f830112610bcc57610bcb6109d9565b5b8151610bdc848260208601610b30565b91505092915050565b600060208284031215610bfb57610bfa61060d565b5b600082015167ffffffffffffffff811115610c1957610c18610612565b5b610c2584828501610bb7565b9150509291505056fea26469706673582212202cb3669bb30189bc979b9e0b72284cf0a5eff779a6a96f3d32c02299dcc6b5b364736f6c63430008140033",
  "linkReferences": {},
  "deployedLinkReferences": {}
}