{
  "_format": "hh-sol-artifact-1",
  "contractName": "LandRegistry",
  "sourceName": "contracts/LandRegistry.sol",
  "abi": [
    {
      "anonymous": false,
      "inputs": [
        {
          "indexed": true,
          "internalType": "address",
          "name": "user",
          "type": "address"
        },
        {
          "indexed": false,
          "internalType": "string",
          "name": "w3wAddress",
          "type": "string"
        }
      ],
      "name": "LandCaptured",
      "type": "event"
    },
    {
      "anonymous": false,
      "inputs": [
        {
          "indexed": true,
          "internalType": "address",
          "name": "user",
          "type": "address"
        },
        {
          "indexed": false,
          "internalType": "string",
          "name": "w3wAddress",
          "type": "string"
        }
      ],
      "name": "LandClaimed",
      "type": "event"
    },
    {
      "anonymous": false,
      "inputs": [
        {
          "indexed": true,
          "internalType": "address",
          "name": "user",
          "type": "address"
        },
        {
          "indexed": false,
          "internalType": "string",
          "name": "w3wAddress",
          "type": "string"
        }
      ],
      "name": "LandReleased",
      "type": "event"
    },
    {
      "anonymous": false,
      "inputs": [
        {
          "indexed": true,
          "internalType": "address",
          "name": "user1",
          "type": "address"
        },
        {
          "indexed": false,
          "internalType": "string",
          "name": "w3wAddress1",
          "type": "string"
        },
        {
          "indexed": true,
          "internalType": "address",
          "name": "user2",
          "type": "address"
        },
        {
          "indexed": false,
          "internalType": "string",
          "name": "w3wAddress2",
          "type": "string"
        }
      ],
      "name": "LandSwapped",
      "type": "event"
    },
    {
      "anonymous": false,
      "inputs": [
        {
          "indexed": true,
          "internalType": "address",
          "name": "user",
          "type": "address"
        }
      ],
      "name": "UserDeleted",
      "type": "event"
    },
    {
      "inputs": [
        {
          "internalType": "address",
          "name": "",
          "type": "address"
        }
      ],
      "name": "balances",
      "outputs": [
        {
          "internalType": "uint256",
          "name": "",
          "type": "uint256"
        }
      ],
      "stateMutability": "view",
      "type": "function"
    },
    {
      "inputs": [
        {
          "internalType": "string",
          "name": "_w3wAddress",
          "type": "string"
        }
      ],
      "name": "claimLand",
      "outputs": [],
      "stateMutability": "nonpayable",
      "type": "function"
    },
    {
      "inputs": [
        {
          "internalType": "address",
          "name": "_user",
          "type": "address"
        }
      ],
      "name": "deleteUser",
      "outputs": [],
      "stateMutability": "nonpayable",
      "type": "function"
    },
    {
      "inputs": [
        {
          "internalType": "string",
          "name": "_w3wAddress",
          "type": "string"
        },
        {
          "internalType": "string[]",
          "name": "_surroundingW3WAddresses",
          "type": "string[]"
        }
      ],
      "name": "forceCapture",
      "outputs": [],
      "stateMutability": "nonpayable",
      "type": "function"
    },
    {
      "inputs": [
        {
          "internalType": "string",
          "name": "_w3wAddress",
          "type": "string"
        }
      ],
      "name": "getLandOwner",
      "outputs": [
        {
          "internalType": "address",
          "name": "",
          "type": "address"
        }
      ],
      "stateMutability": "view",
      "type": "function"
    },
    {
      "inputs": [
        {
          "internalType": "string",
          "name": "_w3wAddress",
          "type": "string"
        }
      ],
      "name": "getLandTimestamp",
      "outputs": [
        {
          "internalType": "uint256",
          "name": "",
          "type": "uint256"
        }
      ],
      "stateMutability": "view",
      "type": "function"
    },
    {
      "inputs": [
        {
          "internalType": "address",
          "name": "_user",
          "type": "address"
        }
      ],
      "name": "getUserBalance",
      "outputs": [
        {
          "internalType": "uint256",
          "name": "",
          "type": "uint256"
        }
      ],
      "stateMutability": "view",
      "type": "function"
    },
    {
      "inputs": [
        {
          "internalType": "address",
          "name": "_user",
          "type": "address"
        }
      ],
      "name": "getUserLands",
      "outputs": [
        {
          "internalType": "string[]",
          "name": "",
          "type": "string[]"
        }
      ],
      "stateMutability": "view",
      "type": "function"
    },
    {
      "inputs": [
        {
          "internalType": "string",
          "name": "_w3wAddress",
          "type": "string"
        }
      ],
      "name": "isLandClaimed",
      "outputs": [
        {
          "internalType": "bool",
          "name": "",
          "type": "bool"
        }
      ],
      "stateMutability": "view",
      "type": "function"
    },
    {
      "inputs": [
        {
          "internalType": "string",
          "name": "",
          "type": "string"
        }
      ],
      "name": "lands",
      "outputs": [
        {
          "internalType": "address",
          "name": "owner",
          "type": "address"
        },
        {
          "internalType": "uint256",
          "name": "timestamp",
          "type": "uint256"
        }
      ],
      "stateMutability": "view",
      "type": "function"
    },
    {
      "inputs": [
        {
          "internalType": "string",
          "name": "_w3wAddress",
          "type": "string"
        },
        {
          "internalType": "address",
          "name": "_user",
          "type": "address"
        }
      ],
      "name": "releaseLand",
      "outputs": [],
      "stateMutability": "nonpayable",
      "type": "function"
    },
    {
      "inputs": [
        {
          "internalType": "string",
          "name": "_myW3WAddress",
          "type": "string"
        },
        {
          "internalType": "address",
          "name": "_otherUser",
          "type": "address"
        },
        {
          "internalType": "string",
          "name": "_theirW3WAddress",
          "type": "string"
        }
      ],
      "name": "swapLand",
      "outputs": [],
      "stateMutability": "nonpayable",
      "type": "function"
    }
  ],
  "bytecode": "0x608060405234801561001057600080fd5b50612767806100206000396000f3fe608060405234801561001057600080fd5b50600436106100b45760003560e01c8063a6b2610911610071578063a6b26109146101b1578063a828e535146101cd578063ae8a2ef6146101e9578063b1c8ad0d14610219578063c9a628ff1461024a578063cdd22b8014610266576100b4565b806327e235e3146100b957806328bf5ef5146100e95780633edba7311461011957806347734892146101495780635c60f226146101795780638f78f95714610195575b600080fd5b6100d360048036038101906100ce919061178f565b610296565b6040516100e091906117d5565b60405180910390f35b61010360048036038101906100fe919061178f565b6102ae565b6040516101109190611942565b60405180910390f35b610133600480360381019061012e9190611a99565b6103c6565b6040516101409190611afd565b60405180910390f35b610163600480360381019061015e919061178f565b610440565b60405161017091906117d5565b60405180910390f35b610193600480360381019061018e919061178f565b610489565b005b6101af60048036038101906101aa9190611bfe565b61071d565b005b6101cb60048036038101906101c69190611c76565b610b83565b005b6101e760048036038101906101e29190611a99565b610e5c565b005b61020360048036038101906101fe9190611a99565b6110c1565b6040516102109190611ce1565b60405180910390f35b610233600480360381019061022e9190611a99565b61110b565b604051610241929190611cfc565b60405180910390f35b610264600480360381019061025f9190611d25565b611165565b005b610280600480360381019061027b9190611a99565b611407565b60405161028d91906117d5565b60405180910390f35b60016020528060005260406000206000915090505481565b6060600260008373ffffffffffffffffffffffffffffffffffffffff1673ffffffffffffffffffffffffffffffffffffffff168152602001908152602001600020805480602002602001604051908101604052809291908181526020016000905b828210156103bb57838290600052602060002001805461032e90611ddf565b80601f016020809104026020016040519081016040528092919081815260200182805461035a90611ddf565b80156103a75780601f1061037c576101008083540402835291602001916103a7565b820191906000526020600020905b81548152906001019060200180831161038a57829003601f168201915b50505050508152602001906001019061030f565b505050509050919050565b60008073ffffffffffffffffffffffffffffffffffffffff166000836040516103ef9190611e4c565b908152602001604051809103902060000160009054906101000a900473ffffffffffffffffffffffffffffffffffffffff1673ffffffffffffffffffffffffffffffffffffffff1614159050919050565b6000600160008373ffffffffffffffffffffffffffffffffffffffff1673ffffffffffffffffffffffffffffffffffffffff168152602001908152602001600020549050919050565b6000600260008373ffffffffffffffffffffffffffffffffffffffff1673ffffffffffffffffffffffffffffffffffffffff16815260200190815260200160002090506000818054905090505b6000811115610647576000826001836104ef9190611e92565b81548110610500576104ff611ec6565b5b90600052602060002001805461051590611ddf565b80601f016020809104026020016040519081016040528092919081815260200182805461054190611ddf565b801561058e5780601f106105635761010080835404028352916020019161058e565b820191906000526020600020905b81548152906001019060200180831161057157829003601f168201915b505050505090506000816040516105a59190611e4c565b9081526020016040518091039020600080820160006101000a81549073ffffffffffffffffffffffffffffffffffffffff0219169055600182016000905550508373ffffffffffffffffffffffffffffffffffffffff167f42c58bc7ebc3c1336d17ddc720da0458a1d8ae2664cae30a397e4271d37a600f8260405161062b9190611f3f565b60405180910390a250808061063f90611f61565b9150506104d6565b50600260008373ffffffffffffffffffffffffffffffffffffffff1673ffffffffffffffffffffffffffffffffffffffff1681526020019081526020016000206000610693919061167b565b600160008373ffffffffffffffffffffffffffffffffffffffff1673ffffffffffffffffffffffffffffffffffffffff168152602001908152602001600020600090558173ffffffffffffffffffffffffffffffffffffffff167f4bc56f1321288dfb5b416cb3a7fd188723979f9e866c91d88eccf7fca039d03960405160405180910390a25050565b3373ffffffffffffffffffffffffffffffffffffffff166000836040516107449190611e4c565b908152602001604051809103902060000160009054906101000a900473ffffffffffffffffffffffffffffffffffffffff1673ffffffffffffffffffffffffffffffffffffffff16036107cc576040517f08c379a00000000000000000000000000000000000000000000000000000000081526004016107c390611fd6565b60405180910390fd5b600073ffffffffffffffffffffffffffffffffffffffff166000836040516107f49190611e4c565b908152602001604051809103902060000160009054906101000a900473ffffffffffffffffffffffffffffffffffffffff1673ffffffffffffffffffffffffffffffffffffffff160361087c576040517f08c379a000000000000000000000000000000000000000000000000000000000815260040161087390612042565b60405180910390fd5b60005b8151811015610964573373ffffffffffffffffffffffffffffffffffffffff1660008383815181106108b4576108b3611ec6565b5b60200260200101516040516108c99190611e4c565b908152602001604051809103902060000160009054906101000a900473ffffffffffffffffffffffffffffffffffffffff1673ffffffffffffffffffffffffffffffffffffffff1614610951576040517f08c379a0000000000000000000000000000000000000000000000000000000008152600401610948906120ae565b60405180910390fd5b808061095c906120ce565b91505061087f565b50600080836040516109769190611e4c565b908152602001604051809103902060000160009054906101000a900473ffffffffffffffffffffffffffffffffffffffff169050336000846040516109bb9190611e4c565b908152602001604051809103902060000160006101000a81548173ffffffffffffffffffffffffffffffffffffffff021916908373ffffffffffffffffffffffffffffffffffffffff160217905550600160008273ffffffffffffffffffffffffffffffffffffffff1673ffffffffffffffffffffffffffffffffffffffff1681526020019081526020016000206000815480929190610a5a90611f61565b9190505550600160003373ffffffffffffffffffffffffffffffffffffffff1673ffffffffffffffffffffffffffffffffffffffff1681526020019081526020016000206000815480929190610aaf906120ce565b9190505550610abe8184611431565b600260003373ffffffffffffffffffffffffffffffffffffffff1673ffffffffffffffffffffffffffffffffffffffff16815260200190815260200160002083908060018154018082558091505060019003906000526020600020016000909190919091509081610b2f91906122c2565b503373ffffffffffffffffffffffffffffffffffffffff167f82ffe248585873fbebadbc65a99a8528d73cc0046060b53423b3f4c9d1d6e23484604051610b769190611f3f565b60405180910390a2505050565b813373ffffffffffffffffffffffffffffffffffffffff16600082604051610bab9190611e4c565b908152602001604051809103902060000160009054906101000a900473ffffffffffffffffffffffffffffffffffffffff1673ffffffffffffffffffffffffffffffffffffffff1614610c33576040517f08c379a0000000000000000000000000000000000000000000000000000000008152600401610c2a906123e0565b60405180910390fd5b600083604051610c439190611e4c565b9081526020016040518091039020600080820160006101000a81549073ffffffffffffffffffffffffffffffffffffffff021916905560018201600090555050600160008373ffffffffffffffffffffffffffffffffffffffff1673ffffffffffffffffffffffffffffffffffffffff1681526020019081526020016000206000815480929190610cd390611f61565b91905055506000600260008473ffffffffffffffffffffffffffffffffffffffff1673ffffffffffffffffffffffffffffffffffffffff168152602001908152602001600020905060005b8180549050811015610e07578480519060200120828281548110610d4557610d44611ec6565b5b90600052602060002001604051610d5c91906124a3565b604051809103902003610df4578160018380549050610d7b9190611e92565b81548110610d8c57610d8b611ec6565b5b90600052602060002001828281548110610da957610da8611ec6565b5b906000526020600020019081610dbf91906124e5565b5081805480610dd157610dd06125cd565b5b600190038181906000526020600020016000610ded919061169c565b9055610e07565b8080610dff906120ce565b915050610d1e565b508273ffffffffffffffffffffffffffffffffffffffff167f42c58bc7ebc3c1336d17ddc720da0458a1d8ae2664cae30a397e4271d37a600f85604051610e4e9190611f3f565b60405180910390a250505050565b600073ffffffffffffffffffffffffffffffffffffffff16600082604051610e849190611e4c565b908152602001604051809103902060000160009054906101000a900473ffffffffffffffffffffffffffffffffffffffff1673ffffffffffffffffffffffffffffffffffffffff1614610f0c576040517f08c379a0000000000000000000000000000000000000000000000000000000008152600401610f0390612648565b60405180910390fd5b60405180604001604052803373ffffffffffffffffffffffffffffffffffffffff16815260200142815250600082604051610f479190611e4c565b908152602001604051809103902060008201518160000160006101000a81548173ffffffffffffffffffffffffffffffffffffffff021916908373ffffffffffffffffffffffffffffffffffffffff16021790555060208201518160010155905050600160003373ffffffffffffffffffffffffffffffffffffffff1673ffffffffffffffffffffffffffffffffffffffff1681526020019081526020016000206000815480929190610ff9906120ce565b9190505550600260003373ffffffffffffffffffffffffffffffffffffffff1673ffffffffffffffffffffffffffffffffffffffff1681526020019081526020016000208190806001815401808255809150506001900390600052602060002001600090919091909150908161106f91906122c2565b503373ffffffffffffffffffffffffffffffffffffffff167fa8d716ec796328f2158ab09d9583ca2d70a1717f3fba64fe960c1bacbca1b5e9826040516110b69190611f3f565b60405180910390a250565b600080826040516110d29190611e4c565b908152602001604051809103902060000160009054906101000a900473ffffffffffffffffffffffffffffffffffffffff169050919050565b6000818051602081018201805184825260208301602085012081835280955050505050506000915090508060000160009054906101000a900473ffffffffffffffffffffffffffffffffffffffff16908060010154905082565b823373ffffffffffffffffffffffffffffffffffffffff1660008260405161118d9190611e4c565b908152602001604051809103902060000160009054906101000a900473ffffffffffffffffffffffffffffffffffffffff1673ffffffffffffffffffffffffffffffffffffffff1614611215576040517f08c379a000000000000000000000000000000000000000000000000000000000815260040161120c906123e0565b60405180910390fd5b8273ffffffffffffffffffffffffffffffffffffffff1660008360405161123c9190611e4c565b908152602001604051809103902060000160009054906101000a900473ffffffffffffffffffffffffffffffffffffffff1673ffffffffffffffffffffffffffffffffffffffff16146112c4576040517f08c379a00000000000000000000000000000000000000000000000000000000081526004016112bb906126da565b60405180910390fd5b336000836040516112d59190611e4c565b908152602001604051809103902060000160006101000a81548173ffffffffffffffffffffffffffffffffffffffff021916908373ffffffffffffffffffffffffffffffffffffffff160217905550826000856040516113359190611e4c565b908152602001604051809103902060000160006101000a81548173ffffffffffffffffffffffffffffffffffffffff021916908373ffffffffffffffffffffffffffffffffffffffff16021790555061138f338584611569565b61139a838386611569565b8273ffffffffffffffffffffffffffffffffffffffff163373ffffffffffffffffffffffffffffffffffffffff167f8efc850bcc075539ef76f3b5b898739130d63f6bc0d9b3290a7e7ae006782cdd86856040516113f99291906126fa565b60405180910390a350505050565b600080826040516114189190611e4c565b9081526020016040518091039020600101549050919050565b6000600260008473ffffffffffffffffffffffffffffffffffffffff1673ffffffffffffffffffffffffffffffffffffffff168152602001908152602001600020905060005b818054905081101561156257828051906020012082828154811061149e5761149d611ec6565b5b906000526020600020016040516114b591906124a3565b60405180910390200361154f5781600183805490506114d49190611e92565b815481106114e5576114e4611ec6565b5b9060005260206000200182828154811061150257611501611ec6565b5b90600052602060002001908161151891906124e5565b508180548061152a576115296125cd565b5b600190038181906000526020600020016000611546919061169c565b90555050611565565b808061155a906120ce565b915050611477565b50505b5050565b6000600260008573ffffffffffffffffffffffffffffffffffffffff1673ffffffffffffffffffffffffffffffffffffffff168152602001908152602001600020905060005b818054905081101561163f5783805190602001208282815481106115d6576115d5611ec6565b5b906000526020600020016040516115ed91906124a3565b60405180910390200361162c578282828154811061160e5761160d611ec6565b5b90600052602060002001908161162491906122c2565b505050611676565b8080611637906120ce565b9150506115af565b50808290806001815401808255809150506001900390600052602060002001600090919091909150908161167391906122c2565b50505b505050565b508054600082559060005260206000209081019061169991906116dc565b50565b5080546116a890611ddf565b6000825580601f106116ba57506116d9565b601f0160209004906000526020600020908101906116d89190611700565b5b50565b5b808211156116fc57600081816116f3919061169c565b506001016116dd565b5090565b5b80821115611719576000816000905550600101611701565b5090565b6000604051905090565b600080fd5b600080fd5b600073ffffffffffffffffffffffffffffffffffffffff82169050919050565b600061175c82611731565b9050919050565b61176c81611751565b811461177757600080fd5b50565b60008135905061178981611763565b92915050565b6000602082840312156117a5576117a4611727565b5b60006117b38482850161177a565b91505092915050565b6000819050919050565b6117cf816117bc565b82525050565b60006020820190506117ea60008301846117c6565b92915050565b600081519050919050565b600082825260208201905092915050565b6000819050602082019050919050565b600081519050919050565b600082825260208201905092915050565b60005b8381101561185657808201518184015260208101905061183b565b60008484015250505050565b6000601f19601f8301169050919050565b600061187e8261181c565b6118888185611827565b9350611898818560208601611838565b6118a181611862565b840191505092915050565b60006118b88383611873565b905092915050565b6000602082019050919050565b60006118d8826117f0565b6118e281856117fb565b9350836020820285016118f48561180c565b8060005b85811015611930578484038952815161191185826118ac565b945061191c836118c0565b925060208a019950506001810190506118f8565b50829750879550505050505092915050565b6000602082019050818103600083015261195c81846118cd565b905092915050565b600080fd5b600080fd5b7f4e487b7100000000000000000000000000000000000000000000000000000000600052604160045260246000fd5b6119a682611862565b810181811067ffffffffffffffff821117156119c5576119c461196e565b5b80604052505050565b60006119d861171d565b90506119e4828261199d565b919050565b600067ffffffffffffffff821115611a0457611a0361196e565b5b611a0d82611862565b9050602081019050919050565b82818337600083830152505050565b6000611a3c611a37846119e9565b6119ce565b905082815260208101848484011115611a5857611a57611969565b5b611a63848285611a1a565b509392505050565b600082601f830112611a8057611a7f611964565b5b8135611a90848260208601611a29565b91505092915050565b600060208284031215611aaf57611aae611727565b5b600082013567ffffffffffffffff811115611acd57611acc61172c565b5b611ad984828501611a6b565b91505092915050565b60008115159050919050565b611af781611ae2565b82525050565b6000602082019050611b126000830184611aee565b92915050565b600067ffffffffffffffff821115611b3357611b3261196e565b5b602082029050602081019050919050565b600080fd5b6000611b5c611b5784611b18565b6119ce565b90508083825260208201905060208402830185811115611b7f57611b7e611b44565b5b835b81811015611bc657803567ffffffffffffffff811115611ba457611ba3611964565b5b808601611bb18982611a6b565b85526020850194505050602081019050611b81565b5050509392505050565b600082601f830112611be557611be4611964565b5b8135611bf5848260208601611b49565b91505092915050565b60008060408385031215611c1557611c14611727565b5b600083013567ffffffffffffffff811115611c3357611c3261172c565b5b611c3f85828601611a6b565b925050602083013567ffffffffffffffff811115611c6057611c5f61172c565b5b611c6c85828601611bd0565b9150509250929050565b60008060408385031215611c8d57611c8c611727565b5b600083013567ffffffffffffffff811115611cab57611caa61172c565b5b611cb785828601611a6b565b9250506020611cc88582860161177a565b9150509250929050565b611cdb81611751565b82525050565b6000602082019050611cf66000830184611cd2565b92915050565b6000604082019050611d116000830185611cd2565b611d1e60208301846117c6565b9392505050565b600080600060608486031215611d3e57611d3d611727565b5b600084013567ffffffffffffffff811115611d5c57611d5b61172c565b5b611d6886828701611a6b565b9350506020611d798682870161177a565b925050604084013567ffffffffffffffff811115611d9a57611d9961172c565b5b611da686828701611a6b565b9150509250925092565b7f4e487b7100000000000000000000000000000000000000000000000000000000600052602260045260246000fd5b60006002820490506001821680611df757607f821691505b602082108103611e0a57611e09611db0565b5b50919050565b600081905092915050565b6000611e268261181c565b611e308185611e10565b9350611e40818560208601611838565b80840191505092915050565b6000611e588284611e1b565b915081905092915050565b7f4e487b7100000000000000000000000000000000000000000000000000000000600052601160045260246000fd5b6000611e9d826117bc565b9150611ea8836117bc565b9250828203905081811115611ec057611ebf611e63565b5b92915050565b7f4e487b7100000000000000000000000000000000000000000000000000000000600052603260045260246000fd5b600082825260208201905092915050565b6000611f118261181c565b611f1b8185611ef5565b9350611f2b818560208601611838565b611f3481611862565b840191505092915050565b60006020820190508181036000830152611f598184611f06565b905092915050565b6000611f6c826117bc565b915060008203611f7f57611f7e611e63565b5b600182039050919050565b7f416c7265616479206f776e656400000000000000000000000000000000000000600082015250565b6000611fc0600d83611ef5565b9150611fcb82611f8a565b602082019050919050565b60006020820190508181036000830152611fef81611fb3565b9050919050565b7f546172676574206c616e6420697320756e636c61696d65640000000000000000600082015250565b600061202c601883611ef5565b915061203782611ff6565b602082019050919050565b6000602082019050818103600083015261205b8161201f565b9050919050565b7f446f206e6f74206f776e20616c6c20737572726f756e64696e67206c616e6473600082015250565b6000612098602083611ef5565b91506120a382612062565b602082019050919050565b600060208201905081810360008301526120c78161208b565b9050919050565b60006120d9826117bc565b91507fffffffffffffffffffffffffffffffffffffffffffffffffffffffffffffffff820361210b5761210a611e63565b5b600182019050919050565b60008190508160005260206000209050919050565b60006020601f8301049050919050565b600082821b905092915050565b6000600883026121787fffffffffffffffffffffffffffffffffffffffffffffffffffffffffffffffff8261213b565b612182868361213b565b95508019841693508086168417925050509392505050565b6000819050919050565b60006121bf6121ba6121b5846117bc565b61219a565b6117bc565b9050919050565b6000819050919050565b6121d9836121a4565b6121ed6121e5826121c6565b848454612148565b825550505050565b600090565b6122026121f5565b61220d8184846121d0565b505050565b5b81811015612231576122266000826121fa565b600181019050612213565b5050565b601f8211156122765761224781612116565b6122508461212b565b8101602085101561225f578190505b61227361226b8561212b565b830182612212565b50505b505050565b600082821c905092915050565b60006122996000198460080261227b565b1980831691505092915050565b60006122b28383612288565b9150826002028217905092915050565b6122cb8261181c565b67ffffffffffffffff8111156122e4576122e361196e565b5b6122ee8254611ddf565b6122f9828285612235565b600060209050601f83116001811461232c576000841561231a578287015190505b61232485826122a6565b86555061238c565b601f19841661233a86612116565b60005b828110156123625784890151825560018201915060208501945060208101905061233d565b8683101561237f578489015161237b601f891682612288565b8355505b6001600288020188555050505b505050505050565b7f4e6f7420746865206f776e657200000000000000000000000000000000000000600082015250565b60006123ca600d83611ef5565b91506123d582612394565b602082019050919050565b600060208201905081810360008301526123f9816123bd565b9050919050565b600081905092915050565b60008190508160005260206000209050919050565b6000815461242d81611ddf565b6124378186612400565b9450600182166000811461245257600181146124675761249a565b60ff198316865281151582028601935061249a565b6124708561240b565b60005b8381101561249257815481890152600182019150602081019050612473565b838801955050505b50505092915050565b60006124af8284612420565b915081905092915050565b6000815490506124c981611ddf565b9050919050565b60008190508160005260206000209050919050565b8181036124f35750506125cb565b6124fc826124ba565b67ffffffffffffffff8111156125155761251461196e565b5b61251f8254611ddf565b61252a828285612235565b6000601f8311600181146125595760008415612547578287015490505b61255185826122a6565b8655506125c4565b601f198416612567876124d0565b965061257286612116565b60005b8281101561259a57848901548255600182019150600185019450602081019050612575565b868310156125b757848901546125b3601f891682612288565b8355505b6001600288020188555050505b5050505050505b565b7f4e487b7100000000000000000000000000000000000000000000000000000000600052603160045260246000fd5b7f4c616e6420616c726561647920636c61696d6564000000000000000000000000600082015250565b6000612632601483611ef5565b915061263d826125fc565b602082019050919050565b6000602082019050818103600083015261266181612625565b9050919050565b7f4f74686572207573657220646f6573206e6f74206f776e20737065636966696560008201527f64206c616e640000000000000000000000000000000000000000000000000000602082015250565b60006126c4602683611ef5565b91506126cf82612668565b604082019050919050565b600060208201905081810360008301526126f3816126b7565b9050919050565b600060408201905081810360008301526127148185611f06565b905081810360208301526127288184611f06565b9050939250505056fea26469706673582212202045f5d9cafcf95e1749c8ec31a6c4af132959555991ab6b8a880114a22f2d2164736f6c63430008140033",
  "linkReferences": {},
  "deployedLinkReferences": {}
}